:1011E6004C696272617279004D6574726F6E6F6DD3
:1011F600650054616E70757261004B6579626F614E
:0A12060072640054656D706F3A00C9
:10125C00024F0000023C0000024700000344000063
:01126C000081
:03002B000212AC12
:0512AC00B2B7C2CF3211
:100F2600AB07AA06EA3395E0F9F8E47F607EEAFDAE
:100F3600FC1211478E428F43E5437802C333CE330A
:100F4600CED8F9F5588E57E54325E0F556E54233F8
:100F5600F555E542C313F54DE54313F54EAE42E5AF
:100F6600437802CEC313CE13D8F9F5528E51AE4252
:100F7600E5437803CEC313CE13D8F9F54C8E4BE573
:100F860042C4F854F0C868F549E543C4540F48F51F
:100F96004AAE57AF587C007D06120B338E408F4108
:100FA600AE57AF587C007D0C120B338E538F54AE68
:0F0FB60057AF587C007D18120B338E3E8F3F22B1
:10126E008FCB8DCA8FCD8DCCC2CFD2CAD2ADD2AFDD
:01127E00224D
:0912A300C2AFC2CAC2CFD2B72209
:08121000C2B1D2B27F147E00CE
:101218008E3A8F3BD3E53B9400E53A9400400F7F2C
:0F1228006412128EE53B153B70EA153A80E62200
:081237007F1BAD43AC427EFDBC
:10123F008C388D39AB07AA06EB4A6007EAFFAD037E
:0D124F0012126EAF39AE381212180212A33F
:100E7B007FF07E00120F26AD43AC427FC17EFC1289
:100E8B00123F1212377F6C121239AD43AC427F9175
:100E9B007EFD12123FAD43AC427FD57EFD12123F59
:100EAB00AD43AC427F127EFE12123FAD43AC427F8C
:100EBB00487EFE12123FAD43AC427F607EFE1212A3
:100ECB003FAD58AC57E4FFFE12123FAD43AC427F2F
:100EDB00607EFE12123FAD43AC427F487EFE121283
:100EEB003FAD43AC427F127EFE12123FAD43AC428C
:100EFB007FD57EFD12123FAD43AC427F917EFD123A
:100F0B00123FAD43AC427F6C7EFD12123F12123783
:0B0F1B00AD43AC427FC17EFC02123FE0
:1011BB007DF47C017F487EFE12123F7DF47C017F23
:1011CB00DA7EFE12123F7DF47C017F8F7EFC1212C1
:0B11DB003F7DF47C01E4FFFE02123FA8
:0A1299008F80C2B0121210C2B22200
:05127F002533F8E6FF35
:0A1284008F80D2B0121210C2B22205
:10118B007F381212997F0A7E001212187F0F1212EB
:10119B00997F0A7E001212187F011212997F0A7E24
:1011AB00001212187F801212997F0A7E0002121809
:100C5600D294D295D296D297C290C291C292C293A2
:100C660020971AE550454F70147F31121284744450
:100C7600253DF87631053DE53D7002053C2097128D
:100C8600E5506401454F700A7DFAFC7F8F7EFC12A9
:100C9600123F20961AE550454F70147F3512128484
:100CA6007444253DF87635053DE53D7002053C204A
:100CB6009612E5506401454F700A7DFAFC7F457E29
:100CC600FD12123F20951AE550454F70147F3912D8
:100CD60012847444253DF87639053DE53D700205DC
:100CE6003C209512E5506401454F700A7DFAFC7F61
:100CF600D57EFD12123F209412E5506401454F70D7
:0C0D06000A7DFAFC7F487EFE12123F229C
:100D1200D294D295D296D297C290C291C292C293E5
:100D220020971AE550454F70147F32121284744492
:100D3200253DF87632053DE53D7002053C209712CF
:100D4200E5506401454F700A7DFAFC7FC17EFC12BA
:100D5200123F20961AE550454F70147F36121284C6
:100D62007444253DF87636053DE53D7002053C208C
:100D72009612E5506401454F700A7DFAFC7F6C7E45
:100D8200FD12123F20951AE550454F70147F301224
:100D920012847444253DF87630053DE53D70020528
:100DA2003C209512E5506401454F700A7DFAFC7FA4
:100DB200F47EFD12123F209412E5506401454F70FB
:0C0DC2000A7DFAFC7F607EFE12123F22C8
:100DCE00D294D295D296D297C290C291C292C29329
:100DDE0020971AE550454F70147F331212847444D5
:100DEE00253DF87633053DE53D7002053C20971212
:100DFE00E5506401454F700A7DFAFC7FEF7EFC12D0
:100E0E00123F20961AE550454F70147F3712128408
:100E1E007444253DF87637053DE53D7002053C20CE
:100E2E009612E5506401454F700A7DFAFC7F917E63
:100E3E00FD12123F209512E5506401454F700A7D58
:100E4E00FAFC7F127EFE12123F20940BE550454FA6
:100E5E007005F547754801209412E5506401454F21
:0D0E6E00700A7DFAFC7F787EFE12123F2292
:100FC500D294D295D296D297C290C291C292C29330
:100FD50020971AE550454F70147F341212847444DB
:100FE500253DF87634053DE53D7002053C20971218
:100FF500E5506401454F700A7DFAFC7F1B7EFD12AA
:10100500123F20961AE550454F70147F381212840E
:101015007444253DF87638053DE53D7002053C20D4
:101025009612E5506401454F700A7DFAFC7FB47E47
:10103500FD12123F209512E5506401454F700A7D5F
:10104500FAFC7F2D7EFE12123F209412E5506401BA
:0F105500454F700A7DFAFC7F8E7EFE12123F22FD
:1010F000120F26AD4EAC4D7F2D7EFE12123FAD4E2F
:10110000AC4DE4FFFE12123FAD4EAC4D7F2D7EFE86
:1011100012123FAD4EAC4DE4FFFE12123FAD4EAC8D
:101120004D7F2D7EFE12123FAD4EAC4DE4FFFE1200
:10113000123FAD4EAC4D7F177EFF12123FAD4EAC4D
:071140004DE4FFFE02123F27
:1008000078087C007D007BFF7A1179E67E007F0806
:10081000120AFB78107C007D007BFF7A1179EE7E56
:10082000007F0A120AFB781A7C007D007BFF7A1198
:1008300079F87E007F08120AFB78227C007D007B1D
:10084000FF7A1279007E007F09120AFB782B7C0068
:100850007D007BFF7A1279097E007F07120AFBE494
:10086000F534F535D2A4D2A1D2A2D2A312118B2095
:10087000A42A7F01121299E4F532F533740812129A
:100880007F0533E53370020532C39407E5329400E7
:1008900040EA120E7B7FE87E0312121820A158E571
:1008A0003545347052F547F548F53CF53DF54FF5C3
:1008B000507F01121299E4F532F533741012127F51
:1008C0000533E53370020532C39409E532940040E4
:1008D000EA7FC0121299E4F532F533742B12127FBD
:1008E0000533E53370020532C39406E532940040C7
:1008F000EA75340075350130A10302098DE54845DC
:100900004770347FC8FE121218D290D291D292D280
:1009100093C294C295C296C297209305120C56803A
:1009200016209205120D12800E209105120DCE8018
:0F09300006209003120FC5E54864014547704E3D
:10093F00AF45EF3395E0FEEF24D0FFEE34FFFE7CA2
:10094F00007D0A120B21AD46ED3395E0FCED24D06E
:10095F00FDEC34FFCD2FFBED3EFAAF44EF3395E0C6
:10096F00FEEF24D0FFEE34FFFE7C007D64120B21DE
:0E097F00EF2BF537EE3AF536AF37FE1210F0DB
:10098D0020A2237F01121299E4F532F533741A1265
:10099D00127F0533E53370020532C39407E53294B7
:1009AD000040EA1211BB20A331E550454F702B7F5B
:1009BD0001121299E4F532F533742212127F0533C8
:1009CD00E53370020532C39408E532940040EA75B0
:1009DD004F00755001E4F534F53530A30302086F6F
:1009ED007F967E00121218D290D291D292D293C2DB
:1009FD0094C295C296C297209306120C5602086FA8
:100A0D00209206120D1202086F209106120DCE02D1
:0E0A1D00086F30900302086F120FC502086FB9
:0B128E000000000000000000DFF6225E
:0300000002106487
:0C106400787FE4F6D8FD7581580210ABCF
:100A2B00E709F608DFFA8046E709F208DFFA803EAD
:100A3B0088828C83E709F0A3DFFA8032E309F6089A
:100A4B00DFFA8078E309F208DFFA807088828C8302
:100A5B00E309F0A3DFFA806489828A83E0A3F608B6
:100A6B00DFFA805889828A83E0A3F208DFFA804C90
:100A7B0080D280FA80C680D4806980F28033801067
:100A8B0080A680EA809A80A880DA80E280CA8033D0
:100A9B0089828A83ECFAE493A3C8C582C8CCC58348
:100AAB00CCF0A3C8C582C8CCC583CCDFE9DEE78018
:100ABB000D89828A83E493A3F608DFF9ECFAA9F097
:100ACB00EDFB2289828A83ECFAE0A3C8C582C8CCED
:100ADB00C583CCF0A3C8C582C8CCC583CCDFEADE06
:100AEB00E880DB89828A83E493A3F208DFF980CC68
:100AFB0088F0EF60010E4E60C388F0ED2402B40461
:100B0B000050B9F582EB2402B4040050AF23234507
:060B1B008223900A7B73A7
:100B2100EF8DF0A4A8F0CF8CF0A428CE8DF0A42EE8
:020B3100FE22A2
:100B3300BC000BBE0029EF8DF084FFADF022E4CCA6
:100B4300F875F008EF2FFFEE33FEEC33FCEE9DEC6F
:100B5300984005FCEE9DFE0FD5F0E9E4CEFD22EDB5
:100B6300F8F5F0EE8420D21CFEADF075F008EF2FFF
:100B7300FFED33FD4007985006D5F0F222C398FDF0
:050B83000FD5F0EA228D
:10114700C2D5E830E70FB2D5E4C39BFBE49AFAE4D3
:1011570099F9E498F8EC30E717B2D512117D120B24
:10116700C4E4C39BFBE49AFAE499F9E498F8800392
:10117700120BC430D50DE4C39FFFE49EFEE49DFD32
:04118700E49CFC22C6
:10107000020800E493A3F8E493A34003F68001F28E
:1010800008DFF48029E493A3F85407240CC8C33381
:10109000C4540F4420C8834004F456800146F6DF50
:1010A000E4800B010204081020408090125CE47E72
:1010B000019360BCA3FF543F30E509541FFEE49345
:1010C000A360010ECF54C025E060A840B8E493A30C
:1010D000FAE493A3F8E493A3C8C582C8CAC583CA37
:1010E000F0A3C8C582C8CAC583CADFE9DEE780BEEF
:01126D000080
:100B880075F008758200EF2FFFEE33FECD33CDCC24
:100B980033CCC58233C5829BED9AEC99E5829840A7
:100BA8000CF582EE9BFEED9AFDEC99FC0FD5F0D684
:100BB800E4CEFBE4CDFAE4CCF9A88222B800C1B9AE
:100BC8000059BA002DEC8BF084CFCECDFCE5F0CBEC
:100BD800F97818EF2FFFEE33FEED33FDEC33FCEB25
:100BE80033FB10D703994004EB99FB0FD8E5E4F9E0
:100BF800FA227818EF2FFFEE33FEED33FDEC33FCCD
:100C0800C933C910D7059BE99A4007EC9BFCE99AC0
:100C1800F90FD8E0E4C9FAE4CCFB2275F010EF2F05
:100C2800FFEE33FEED33FDCC33CCC833C810D70705
:100C38009BEC9AE899400AED9BFDEC9AFCE899F840
:0E0C48000FD5F0DAE4CDFBE4CCFAE4C8F922D3
:00000001FF
